{"abi":[{"type":"function","name":"increment","inputs":[],"outputs":[],"stateMutability":"nonpayable"},{"type":"function","name":"retrieve","inputs":[],"outputs":[{"name":"","type":"uint256","internalType":"uint256"}],"stateMutability":"view"},{"type":"function","name":"store","inputs":[{"name":"newValue","type":"uint256","internalType":"uint256"}],"outputs":[],"stateMutability":"nonpayable"},{"type":"event","name":"ValueChanged","inputs":[{"name":"oldValue","type":"uint256","indexed":true,"internalType":"uint256"},{"name":"newValue","type":"uint256","indexed":true,"internalType":"uint256"},{"name":"changer","type":"address","indexed":true,"internalType":"address"}],"anonymous":false}],"bytecode":{"object":"0x608060405234801561000f575f80fd5b506101678061001d5f395ff3fe608060405234801561000f575f80fd5b506004361061003f575f3560e01c80632e64cec1146100435780636057361d14610057578063d09de08a1461006c575b5f80fd5b5f5460405190815260200160405180910390f35b61006a6100653660046100f5565b610074565b005b61006a6100ad565b5f805482825560405190913391849184917f681683094c99fb1b55d9c72829a0516f885774946ee037b112798941433c137b9190a45050565b5f805490600190806100bf838561010c565b90915550505f8054604051339284917f681683094c99fb1b55d9c72829a0516f885774946ee037b112798941433c137b9190a450565b5f60208284031215610105575f80fd5b5035919050565b8082018082111561012b57634e487b7160e01b5f52601160045260245ffd5b9291505056fea26469706673582212204b694115f295b6e01afd58855d1e298bc8f0a157f39cd71b0b0d62fcadc2daaa64736f6c63430008180033","linkReferences":{}},"methodIdentifiers":{"increment()":"d09de08a","retrieve()":"2e64cec1","store(uint256)":"6057361d"},"id":23}